{
  "contractName": "Hello",
  "abi": [
    {
      "constant": true,
      "inputs": [],
      "name": "say",
      "outputs": [
        {
          "name": "",
          "type": "string"
        }
      ],
      "payable": false,
      "stateMutability": "pure",
      "type": "function"
    },
    {
      "constant": true,
      "inputs": [
        {
          "name": "a",
          "type": "uint256"
        },
        {
          "name": "b",
          "type": "uint256"
        }
      ],
      "name": "sum",
      "outputs": [
        {
          "name": "val",
          "type": "uint256"
        }
      ],
      "payable": false,
      "stateMutability": "pure",
      "type": "function"
    }
  ],
  "bytecode": "0x608060405234801561001057600080fd5b50610183806100206000396000f3fe608060405234801561001057600080fd5b50600436106100365760003560e01c8063954ab4b21461003b578063cad0899b146100be575b600080fd5b61004361010a565b6040518080602001828103825283818151815260200191508051906020019080838360005b83811015610083578082015181840152602081019050610068565b50505050905090810190601f1680156100b05780820380516001836020036101000a031916815260200191505b509250505060405180910390f35b6100f4600480360360408110156100d457600080fd5b810190808035906020019092919080359060200190929190505050610147565b6040518082815260200191505060405180910390f35b60606040518060400160405280600b81526020017f48656c6c6f20576f726c64000000000000000000000000000000000000000000815250905090565b600081830190508090509291505056fea165627a7a72305820b35c2c51c6f7fb10a86940714b131e84d06e427c8bd1f25839bdfe610824c2a20029",
  "source": "pragma solidity ^0.5.8;\n\ncontract Hello {\n    function say() pure public returns(string memory) {\n        return \"Hello World\";\n    }\n\n    function sum(uint a, uint b) pure public returns(uint val) {\n        val = a + b;\n        return val;\n    }\n}",
  "sourcePath": "/Users/chenzuoli/IdeaProjects/Ethereum/myproject/contracts/Hello.sol",
  "compiler": {
    "name": "solc",
    "version": "0.5.8+commit.23d335f2.Emscripten.clang"
  },
  "schemaVersion": "3.0.11",
  "updatedAt": "2019-08-04T06:04:20.053Z",
  "devdoc": {
    "methods": {}
  },
  "userdoc": {
    "methods": {}
  }
}